{
  "_format": "hh-sol-artifact-1",
  "contractName": "L2Contract",
  "sourceName": "contracts/L2Contract.sol",
  "abi": [
    {
      "inputs": [
        {
          "internalType": "address",
          "name": "_l2Bridge",
          "type": "address"
        }
      ],
      "stateMutability": "nonpayable",
      "type": "constructor"
    },
    {
      "inputs": [
        {
          "internalType": "address",
          "name": "_to",
          "type": "address"
        },
        {
          "internalType": "bytes",
          "name": "_calldata",
          "type": "bytes"
        }
      ],
      "name": "sendMessageToL1",
      "outputs": [],
      "stateMutability": "nonpayable",
      "type": "function"
    }
  ],
  "bytecode": "0x608060405234801561001057600080fd5b506040516105173803806105178339818101604052810190610032919061008d565b806000806101000a81548173ffffffffffffffffffffffffffffffffffffffff021916908373ffffffffffffffffffffffffffffffffffffffff160217905550506100ff565b600081519050610087816100e8565b92915050565b60006020828403121561009f57600080fd5b60006100ad84828501610078565b91505092915050565b60006100c1826100c8565b9050919050565b600073ffffffffffffffffffffffffffffffffffffffff82169050919050565b6100f1816100b6565b81146100fc57600080fd5b50565b6104098061010e6000396000f3fe608060405234801561001057600080fd5b506004361061002b5760003560e01c8063abd9872914610030575b600080fd5b61004a6004803603810190610045919061016c565b61004c565b005b60008060009054906101000a900473ffffffffffffffffffffffffffffffffffffffff1690506000620186a090508173ffffffffffffffffffffffffffffffffffffffff16633dbb202b8585846040518463ffffffff1660e01b81526004016100b793929190610217565b600060405180830381600087803b1580156100d157600080fd5b505af11580156100e5573d6000803e3d6000fd5b5050505050505050565b60006101026100fd8461027a565b610255565b90508281526020810184848401111561011a57600080fd5b610125848285610309565b509392505050565b60008135905061013c816103bc565b92915050565b600082601f83011261015357600080fd5b81356101638482602086016100ef565b91505092915050565b6000806040838503121561017f57600080fd5b600061018d8582860161012d565b925050602083013567ffffffffffffffff8111156101aa57600080fd5b6101b685828601610142565b9150509250929050565b6101c9816102c7565b82525050565b60006101da826102ab565b6101e481856102b6565b93506101f4818560208601610318565b6101fd816103ab565b840191505092915050565b610211816102f9565b82525050565b600060608201905061022c60008301866101c0565b818103602083015261023e81856101cf565b905061024d6040830184610208565b949350505050565b600061025f610270565b905061026b828261034b565b919050565b6000604051905090565b600067ffffffffffffffff8211156102955761029461037c565b5b61029e826103ab565b9050602081019050919050565b600081519050919050565b600082825260208201905092915050565b60006102d2826102d9565b9050919050565b600073ffffffffffffffffffffffffffffffffffffffff82169050919050565b600063ffffffff82169050919050565b82818337600083830152505050565b60005b8381101561033657808201518184015260208101905061031b565b83811115610345576000848401525b50505050565b610354826103ab565b810181811067ffffffffffffffff821117156103735761037261037c565b5b80604052505050565b7f4e487b7100000000000000000000000000000000000000000000000000000000600052604160045260246000fd5b6000601f19601f8301169050919050565b6103c5816102c7565b81146103d057600080fd5b5056fea2646970667358221220734c61d80eac55dfab9e759d4f10a581ffe8e59eef3d1ece8e9c011efb643f4864736f6c63430008040033",
  "linkReferences": {},
  "deployedLinkReferences": {}
}